:020000040800F2
:10000000B808002055020008D91C0008D11C0008BF
:10001000D51C0008E50400081526000800000000B3
:10002000000000000000000000000000E11C0008CB
:100030000105000800000000DD1C0008E51C0008A8
:100040006F0200086F0200086F0200086F020008CC
:100050006F0200086F0200086F0200086F020008BC
:100060006F0200086F0200086F0200086F020008AC
:100070006F0200086F0200086F0200086F0200089C
:100080006F0200086F0200086F0200086F0200088C
:100090006F0200086F0200086F0200086F0200087C
:1000A0006F0200086F0200086F0200086F0200086C
:1000B0006F0200086F0200086F0200086F0200085C
:1000C0006F0200086F0200086F0200086F0200084C
:1000D0006F0200086F0200086F0200086F0200083C
:1000E0006F0200086F0200086F0200086F0200082C
:1000F0006F0200086F0200086F0200086F0200081C
:100100006F0200086F0200086F0200086F0200080B
:100110006F0200086F0200086F0200086F020008FB
:100120006F020008E90400086F0200086F0200086F
:100130006F0200086F0200086F0200086F020008DB
:100140006F0200086F0200086F0200086F020008CB
:100150006F020008F50400086F0200080926000875
:100160006F0200086F0200086F0200086F020008AB
:100170006F0200086F0200086F0200080000000014
:100180006F0200086F02000800F002F800F052F859
:1001900014A696E8000CB244B344DA4501D100F04D
:1001A00049F8BAE80F000FA696E83000A5EB040561
:1001B00004EB0607AAEB0704A7F101074FEA1515A0
:1001C0004FEA3414A4F10104AC4201D300F032F838
:1001D00013F0010F18BFFB1A43F0010300F001F800
:1001E000DBE71847D8250000F8250000103A24BFA7
:1001F00078C878C1FAD8520724BF30C830C144BF8C
:1002000004680C6070470000704700000023002461
:1002100000250026103A28BF78C1FBD8520728BF16
:1002200030C148BF0B6070471FB502F0AAFA1FBD6E
:1002300010B510BD00F01BF91146FFF7F5FF02F0F5
:10024000EBF900F039F903B4FFF7F2FF03BC00F05B
:1002500041F900000948804709480047FEE7FEE7EA
:10026000FEE7FEE7FEE7FEE7FEE7FEE7FEE7FEE766
:1002700004480549054A064B70470000E91C000880
:1002800089010008B8020020B8080020B804002046
:10029000B804002053EA020C00F069802DE9F04B0D
:1002A0004FF00006002B1FBFB3FA83F503FA05F4E5
:1002B00024FA05F65E4012BF1643B2FA82F502FA3E
:1002C00005F4C5F120051EBF22FA05FC44EA0C0422
:1002D000203556EA044C4FEA144418BF641C4FF012
:1002E00000084FF00009904271EB030C39D300294C
:1002F00019BFB1FA81F701FA07F6B0FA80F700FAF0
:1003000007F6C7F120071EBF20FA07FC46EA0C06D5
:100310002037B6FBF4FCA7EB0507103F07F01F0BD7
:10032000CBF120062CFA06F60CFA0BFB44BFB346C1
:100330000026202FA4BF5E464FF0000B5BEA060CA0
:1003400008BF4FF0010B19EB0B0948EB0608ABFB9C
:10035000027C06FB02CC0BFB03CCC01B71EB0C0137
:10036000C1E70B46024641464846BDE8F08B13B54F
:10037000084318BF4FF0FF300146AFF30080BDE8DF
:100380001C40704740EA010310B59B070FD1042AB7
:100390000DD310C808C9121F9C42F8D020BA19BA50
:1003A000884201D9012010BD4FF0FF3010BD1AB1B5
:1003B000D30703D0521C07E0002010BD10F8013B0A
:1003C00011F8014B1B1B07D110F8013B11F8014B31
:1003D0001B1B01D1921EF1D1184610BD10B5431C54
:1003E00002E010F8011B71B18107FAD14FF0013220
:1003F00002C88C1A8C4314EAC211F9D0C01A0A063A
:1004000003D0C01E10BDC01A10BD0A0401D0801E4A
:1004100010BD0902FCD0401E10BD4FF0000200B517
:10042000134694469646203922BFA0E80C50A0E817
:100430000C50B1F12001BFF4F7AF090728BFA0E8C5
:100440000C5048BF0CC05DF804EB890028BF40F891
:10045000042B08BF704748BF20F8022B11F0804FD3
:1004600018BF00F8012B70477047704770477546FA
:1004700000F02CF8AE4605006946534620F0070010
:10048000854618B020B5FFF7F3FEBDE820404FF0D9
:1004900000064FF000074FF000084FF0000BAC468D
:1004A000ACE8C009ACE8C009ACE8C009ACE8C009D8
:1004B00021F007018D46704710B50446AFF3008068
:1004C0002046BDE81040FFF7BEBE00000048704760
:1004D0001000002001491820ABBEFEE726000200F4
:1004E00070470000FEE7000040F24410C2F2000036
:1004F00000F066B840F2A410C2F2000000F060B84C
:100500007047000072B600BFFEE7000070B5866D50
:10051000044600F011FB94F83510022928D1054655
:100520002068216C026822F016020260426922F003
:100530008002426109B9A16C19B1016821F008017A
:100540000160016821F00101016000BF20680068BE
:10055000C00715D000F0F0FA401B0628F6D3202083
:100560006065032084F83500002184F8341070BDE4
:10057000802060650120002184F8341070BD00BF28
:10058000E06D3F2101FA00F0B060012084F83500F1
:100590000020002184F8341070BD000090F8351060
:1005A000022909D1052180F835100068016821F081
:1005B00001010160002070478021416501207047E2
:1005C000F0B581B00021009140F20801C2F20001B3
:1005D0000B68D0E9166148F2B51537680822C1F6F4
:1005E0004E358A403A42A3FB05350CD003681C689F
:1005F000640708D51C6824F004041C60B260426DD6
:1006000042F00102426501228A403A4208D0036862
:100610005B691B0604D5B260426D42F0020242657E
:1006200004228A403A4208D003681B689B0704D51D
:10063000B260426D42F00402426510228A403A42A2
:1006400019D001680B681B0715D5B2600B680A68E2
:100650005B0309D4D20509D40A6822F008020A60B3
:10066000016C29B907E000BF110341D4016C11B13D
:10067000044688472046C26D202101FA02F33B421E
:1006800043D001680F68FF063FD5B36090F835701E
:100690000B68052F1CD123F016030B604B6923F068
:1006A00080034B61036C0BB9836C1BB10B6823F0A7
:1006B00008030B603F219140B160012180F83510A3
:1006C000016D0022002980F8342054D158E000BF89
:1006D0000A685B0310D4D20512D40A6822F0100213
:1006E0000A60012180F83510002180F8341007E0FD
:1006F000816C0029BCD1BEE7110301D4416C00E03C
:10070000C16B11B1044688472046416DC1B3416DAC
:10071000C9072ED0052180F835100168AA0A0B6898
:1007200023F001030B60009B0133934200931AD81E
:100730000B68DB0717D0009B01339342009312D85C
:100740000B68DB070FD0009B0133934200930AD85C
:100750000B68DB0707D0009B01339342009302D85C
:100760000B68DB07DFD1012180F83510002180F80C
:100770003410C16C21B101B0BDE8F040084700BFA2
:1007800001B0F0BD2DE9F041044600F0D5F9ECB11F
:100790000546022084F835000020216884F83400E2
:1007A000086820F00100086021680868C00711D0BF
:1007B00000F0C2F9401B0528F6D9032520230320A9
:1007C000636584F83550BDE8F08100BF0120BDE8C5
:1007D000F08100BF086848F23F02CFF21002D4E96E
:1007E000013500EA020C04F10C0898E8C10143EA63
:1007F0000C032B431843D4E9072E304338431043EE
:10080000626A40EA0E00042A40EA08031CD1206B09
:10081000D4E90A2E40EA0E00184308604869BEF188
:10082000000F20F0030040EA020040F0040C11D059
:10083000B8F5005F36D0B8F1000F45D1022A46D096
:10084000012A3BD032B942E00B60486920F0070032
:1008500040EA020C01F0F8004AF6AB221038CAF662
:10086000AA22A0FB02231A0942F2B473C1F814C0F1
:10087000C0F600039A5C40F2FF335F284FF03F0060
:1008800021EA030100FA02F088BF0431C4E916121C
:100890008860002301250020636584F83550BDE899
:1008A000F08100BF032AD5D8012540230120DFE8CD
:1008B00002F0030E030500BF82E700BFAEF1C07077
:1008C000B0FA80F0400904E0032A04D3C2D1CEF389
:1008D00000600028BED0012540230120636584F814
:1008E0003550BDE8F081000090F834C0BCF1010F34
:1008F00004BF0220704770B54FF0010C80F834C07F
:10090000D0F858E090F835C0BCF1010F38D14FF065
:10091000020C80F835C04FF0000CC0F854C0D0F87D
:1009200000C08468056CC06DDCF80060402C26F4C3
:100930008026CCF80060CCF804300B4604BF134688
:100940000A463F2101FA00F0CCF80830CCF80C2020
:10095000CEF80800DCF8000040F01600CCF80000EB
:100960002DB1DCF8000040F00800CCF80000DCF805
:10097000000040F00100CCF80000002070BD00BF76
:10098000002180F83410022070BD00002DE9F04FE6
:1009900083B000F1200200F13E4741F6004500928D
:1009A00007F1FF77C4F2020508224FEAB726A842F2
:1009B00008BF072200254FF000084FF00009072E5E
:1009C00038BF4FEAB72201920AE000BF09F10109DE
:1009D00008F10208B9F1100F05F1040500F0A2803A
:1009E0000F68012202FA09FE17EA0E0AEED0D1F8CA
:1009F00004C003220CF003077E1E02FA08F4012E45
:100A00006FEA040B12D88468CE6804EA0B0406FA75
:100A100008F634438460446824EA0E06CCF30014DC
:100A200004FA09F42643466004E000BF032F01D115
:100A300003271EE0C6688C6806EA0B0604FA08F471
:100A40002643022FC66014D16FF00302009E02EA13
:100A5000590756F807C005F01C040F220B69A24085
:100A60002CEA0202A3401A43F251D1F804C00CF060
:100A70000307026807FA08F302EA0B021A431CF4A0
:100A8000403F0260A2D0002243F644030292C4F227
:100A900002031A6843F6004442F480421A601A685E
:100AA000C4F2010402F480420292029A29F0030285
:100AB0004FF6084C2244CFF6FF7C52F80C3005F07C
:100AC0000C070F26BE40B343019E06FA07F73B43CF
:100AD00042F80C30A2684B6842EA0A0743F60C4C15
:100AE000DE0258BF22EA0A07A760C4F2010CDCF854
:100AF00000209E0242EA0A0758BF22EA0A07CCF801
:100B0000007062689E0342EA0A0758BF22EA0A0799
:100B100067602268DB0342EA0A0758BF22EA0A0735
:100B2000276053E703B0BDE8F08F0000002A08BF3C
:100B3000090481617047000040F2B020C2F2000059
:100B40000068704740F2000040F2B021C2F200009D
:100B5000C2F2000100780A68104408607047000083
:100B600080B543F60040C4F20200016841F4007110
:100B70000160016841F480610160016841F48071A5
:100B80000160032000F086F80F2000F005F800F067
:100B900027F8002080BD000070B540F20006C2F2C8
:100BA000000640F208013278C2F200014FF47A7375
:100BB0000968B3FBF2F20446B1FBF2F1084600F01B
:100BC00061FB0F2C4FF0010508D838B94FF0FF300A
:100BD00021460022002500F031F87460284670BDDF
:100BE00082B0002043F640010190C4F202014A683D
:100BF00042F480424A604A6802F480420192019ABB
:100C00000090086840F080500860086800F080504C
:100C10000090009802B07047002848BF704700F06D
:100C20001F01012202FA01F11C2202EAD0004EF259
:100C30000012CEF2000281507047000010B54EF64F
:100C40000C5CCEF2000CDCF80030C3F3022E8EF008
:100C50000704042C28BF0424BEF103034FF0FF3E19
:100C60000EFA04F438BF0023A14399400EFA03F3AF
:100C70009A43114300F00F0200F160430901043A66
:100C800003F564436244002848BF02F10C03197065
:100C900010BD00004EF60C51CEF200010A684FF66E
:100CA000FF031A4060F30A2242F0806040F0FD70BA
:100CB00008607047002804BF012070472DE9F0410B
:100CC00043F60808C4F202080446D8F8F8030D46B3
:100CD00000F00700814207D988F8F853D8F8F803E4
:100CE00000F00700A84277D12068810717D5410797
:100CF00005D5D8F8001041F4E051C8F800100107FC
:100D000005D5D8F8001041F46041C8F80010D8F8B3
:100D10000010A26821F0F0011143C8F80010C007CC
:100D200040D1D8F8F80300F00700854207D288F8D0
:100D3000F853D8F8F80300F00700A8424CD1206817
:100D4000410707D5D8F80010E26821F4E0511143BB
:100D5000C8F80010000708D5D8F80000216920F471
:100D6000604040EAC100C8F8000000F07DF8D8F803
:100D7000001042F29C72C1F30311C0F60002515CF4
:100D800040F2080220FA01F140F20400C2F2000031
:100D90000068C2F200021160FFF7FEFE0020BDE80D
:100DA000F08100BF6068811E022907D258F8081C34
:100DB00089015CBF0120BDE8F08111E0012807D165
:100DC00058F8081C89035CBF0120BDE8F08107E0EA
:100DD00058F8081C890703D40120BDE8F08100BF42
:100DE000D8F8001021F003010843C8F80000FFF70D
:100DF000A3FE064641F28837D8F80000616800F08B
:100E00000C00B0EB810F8CD0FFF796FE801BB84230
:100E1000F2D90320BDE8F08140F2080043F6080152
:100E2000C2F20000C4F202010068096842F2AC722A
:100E3000C1F38221C0F60002515CC8407047000037
:100E400040F2080043F60801C2F20000C4F20201B9
:100E50000068096842F2AC72C1F34231C0F6000288
:100E6000515CC8407047000010B543F60404C4F25A
:100E700002046168C1F3810142F20040C0F2F40053
:100E8000DFE801F002040A0210BD00BF47F640008F
:100E9000C0F27D1010BD00BF2068216823684902A0
:100EA00047F64001C0F27D1100F03F02C3F3881005
:100EB0005CBF42F20041C0F2F401A1FB000100233B
:100EC000FFF7E8F921680222C1F3014102EB410179
:100ED000B0FBF1F010BD0000002804BF01207047F6
:100EE0002DE9F04182B00446007843F60006C007C1
:100EF000C4F202060CD0B06800F00C00042840F0E8
:100F000081803068800303D56068002800F0688124
:100F1000207880071BD5B06810F00C0F09D0B0689E
:100F200000F00C00082840F087807068400200F153
:100F300083803068800703D5E068012840F0508145
:100F40003068216920F0F80040EAC1003060207864
:100F5000000713D4207840072AD4A569002D00F09B
:100F60003A81B06800F00C00082840F0A580012DFF
:100F700040F00E81012002B0BDE8F08160690028D8
:100F800000F082800020C4F247200121C0F8801EBA
:100F9000FFF7D2FD054600BF706F8007DAD4FFF778
:100FA000CBFD401B0228F7D9032002B0BDE8F08139
:100FB000306C5FEAC0080AD400200190306C40F029
:100FC00080503064306C00F080500190019847F2FE
:100FD0000007C4F200073868C00547D4386840F4F9
:100FE00080703860FFF7A8FD054600BF3868C0056F
:100FF0003CD4FFF7A1FD401B0228F7D9032002B023
:10100000BDE8F081B06800F00C00082803D17068DA
:1010100040023FF576AF61683068B1F5803F07D098
:10102000B1F5A02F40F09A8040F480203060306805
:1010300040F4803030609AE0E068002840F2000020
:10104000C4F247205CD001210160FFF775FD054621
:10105000306880073FF574AFFFF76EFD401B022834
:10106000F6D9032002B0BDE8F08100BFA168306F5F
:10107000012905D0052955D140F004003067306FB3
:1010800040F00100306756E00020C4F24720002104
:10109000C0F8801EFFF750FD054600BF706F800747
:1010A0007FF558AFFFF748FD401B0228F6D9032013
:1010B00002B0BDE8F08100BF0027C4F2472700203E
:1010C0003866FFF739FD022D05460DD130688001E5
:1010D00040F18A80FFF730FD401B02284FF00300EB
:1010E000F4D902B0BDE8F0813068800173D5FFF714
:1010F00023FD401B02284FF00300F5D9F1E700BFA4
:1011000000210160FFF718FD054600BF3068800729
:101110007FF51DAFFFF710FD401B02284FF00300C5
:10112000F4D9DEE720F001003067306F002920F0AD
:10113000040030677AD0FFF7FFFC054641F288379C
:10114000306F800700F18480FFF7F6FC401BB84247
:10115000F6D9032002B0BDE8F08100BF20F4803052
:1011600030603068002920F4802030607AD0FFF7AA
:10117000E3FC0546306880033FF5CAAEFFF7DCFCB0
:10118000401B6428F6D9032002B0BDE8F08100BFFF
:101190007068E16900F480028A4221D1216A00F07E
:1011A0003F028A421CD147F6C071626A0140B1EB2E
:1011B000821F15D1A16A4FF6FF73C903994300F44A
:1011C0004032A1F580318A420AD1E16A00F07060B4
:1011D000B0EB016F04D1002002B0BDE8F08100BF88
:1011E000012002B0BDE8F08104F11C052FCD0843B9
:1011F00040EA8210D9034FF6FF729143A1F5803186
:1012000040EA05600843706001203866FFF794FCEF
:10121000044600BF30688001DDD4FFF78DFC001B61
:1012200002284FF00300F5D95BE700BFFFF784FC0D
:10123000054641F2883700BF306F800708D5FFF7B9
:101240007BFC401BB8424FF00300F5D949E700BFD3
:10125000B8F1000F3FF581AE306C20F08050306463
:101260007BE600BFFFF768FC054600BF30688003DF
:101270007FF54EAEFFF760FC401B64284FF0030083
:10128000F4D92EE7411E0020B0EB116F1CBF0120E6
:1012900070474EF21002CEF2000251604EF623511A
:1012A000CEF20001F0230B700721906011607047AF
:1012B000406B704770B582B090F84250202D0BD132
:1012C00013460A460146002A4FF0010018BF002BC2
:1012D00006D102B070BD00BF022002B070BD00BFD9
:1012E0000863002622204E638A628B854E6481F853
:1012F00042000C680D46C86B42F2D51C42F23531F3
:10130000C0F6000CC0F60001C0E90FC142F259015D
:10131000C0F60001C0E91316211DFFF7E5FAE8B396
:10132000102068642020294685F8420001200A6BBD
:10133000012A40F0B380002200920A6813680093EB
:1013400052680092009A00BF0A6852E8032F0B68A7
:1013500042F0100243E80326002EBAD00A6852E891
:10136000032F0B6842F0100243E80326002EB0D092
:101370000A6852E8032F0B6842F0100243E8032684
:10138000002EA6D00A6852E8032F0B6842F0100224
:1013900043E80326002ED7D19BE700BF01962868BB
:1013A000294602680192406801900198286928B393
:1013B000086850E8030F0A6840F4807042E80303AD
:1013C000E3B1086850E8030F0A6840F4807042E80F
:1013D00003039BB1086850E8030F0A6840F480706B
:1013E00042E8030353B1086850E8030F0A6840F469
:1013F000807042E80303002BDAD100BF086850E890
:10140000050F0A6840F0010042E80503BBB3086815
:1014100050E8050F0A6840F0010042E8050373B385
:10142000086850E8050F0A6840F0010042E805032B
:101430002BB3086850E8050F0A6840F0010042E845
:101440000503002BDAD11AE0086850E8050F0A6896
:1014500040F0400042E80503DBB1086850E8050FA2
:101460000A6840F0400042E8050393B1086850E87C
:10147000050F0A6840F0400042E805034BB10868D8
:1014800050E8050F0A6840F0400042E80503002BD1
:10149000DAD100200A6B012A3FF44DAF012002B0DF
:1014A00070BD0000026841F20043C4F201039A4299
:1014B00018BF704710B50C46FFF7FAFE022806D198
:1014C00040F27000C2F20000012184800170BDE88A
:1014D0001040704770470000B0B582B001680A68DC
:1014E000CC684B6902F02F05202D04F0200505D1B2
:1014F00025B102B0BDE8B04000F084BF5FEA027CD5
:101500001EBF03F0010E04F4907313EB0E0341D1E0
:10151000036BD50618D5012B16D114F0100313D088
:10152000002201920A6801924A680192019A49696F
:1015300049064BD4818DC28DC38D002B18BF9142BB
:1015400040F0068202B0B0BD13062DD514F0800322
:101550002AD090F84120212AF4D18268B2F5805F28
:1015600003D10269002A00F07982026A531C0362E7
:1015700012784A60C28C013A1304C284E2D1C8686E
:1015800020F08000C860C86840F04000C86002B029
:10159000B0BD00BFD30718BF14F4807340F0E280E1
:1015A000530700F1E580EAE05206CBD514F0400283
:1015B000C8D0CA6822F04002CA60202180F84110D9
:1015C00002B0BDE8B04000F071BB00BFC26B116853
:1015D0004B68858D99B2002900F0B480A94280F053
:1015E000B180C385D169B1F5807F00F0A08001682A
:1015F00051E8031F026821F4807142E80313DBB154
:10160000016851E8031F026821F4807142E8031366
:1016100093B1016851E8031F026821F4807142E828
:1016200003134BB1016851E8031F026821F4807174
:1016300042E80313002BDAD1016851E8051F026864
:1016400021F0010142E80513BBB3016851E8051F11
:10165000026821F0010142E8051373B3016851E803
:10166000051F026821F0010142E805132BB3016850
:1016700051E8051F026821F0010142E80513002B23
:10168000DAD11AE0016851E8051F026821F0400133
:1016900042E80513DBB1016851E8051F026821F03B
:1016A000400142E8051393B1016851E8051F026843
:1016B00021F0400142E805134BB1016851E8051FD4
:1016C000026821F0400142E80513002BDAD1202105
:1016D00080F8421000210163016851E8031F02688D
:1016E00021F0100142E80313DBB1016851E8031F48
:1016F000026821F0100142E8031393B1016851E838
:10170000031F026821F0100142E803134BB1016886
:1017100051E8031F026821F0100142E80313002B77
:10172000DAD1C16B04460846FEF7F0FE20460221DE
:101730004163818DC28D891A89B202B0BDE8B04083
:10174000FFF7B0BE8D427FF4FDAED269B2F5807F67
:101750007FF4F8AE0222426302B0BDE8B040FFF76A
:10176000A1BE00BF436C43F001034364530706D599
:10177000BEF1000F03D0436C43F0020343649307B0
:1017800006D5BEF1000F03D0436C43F0040343645D
:10179000BCF1000F06D55EEA050303D0436C43F0AD
:1017A00008034364436C002B3FF4CCAE920605D58E
:1017B00025B1044600F026FE216820464969426CA6
:1017C00001F0400102F00802891800F0B98000BF62
:1017D000016851E8031F026821F4907142E8031385
:1017E000BBB3016851E8031F026821F4907142E81D
:1017F000031373B3016851E8031F026821F4907169
:1018000042E803132BB3016851E8031F026821F477
:10181000907142E80313002BDAD11AE0016851E815
:10182000051F026821F0010142E80513DBB10168E0
:1018300051E8051F026821F0010142E8051393B148
:10184000016851E8051F026821F0010142E8051313
:101850004BB1016851E8051F026821F0010142E81F
:101860000513002BDAD1016B012924D1016851E85D
:10187000031F026821F0100142E80313DBB1016885
:1018800051E8031F026821F0100142E8031393B1ED
:10189000016851E8031F026821F0100142E80313B8
:1018A0004BB1016851E8031F026821F0100142E8C2
:1018B0000313002BDAD1202180F8421000210163AC
:1018C00001684969490640F1C380016851E8051F74
:1018D000026821F0400142E80513DBB1016851E8DC
:1018E000051F026821F0400142E8051393B1016829
:1018F00051E8051F026821F0400142E805134BB191
:10190000016851E8051F026821F0400142E8051313
:10191000002BDAD1C16B002900F09A8042F24D020F
:10192000C0F60002044608460A65FEF737FE0028A6
:101930003FF408AEE06B016D02B0BDE8B04008476F
:101940000446FFF7C7FD0020606402B0B0BD00BFD1
:10195000891A00BF026852E8032F036822F49072CC
:1019600043E80325BDB3026852E8032F036822F45D
:10197000907243E8032575B3026852E8032F0368A9
:1019800022F4907243E803252DB3026852E8032F36
:10199000036822F4907243E80325002DDAD11AE09F
:1019A000026852E8052F036822F0010243E805258A
:1019B000DDB1026852E8052F036822F0010243E816
:1019C000052595B1026852E8052F036822F001024F
:1019D00043E805254DB1026852E8052F036822F05F
:1019E000010243E80525002DDAD1202280F84220AB
:1019F00000220263026852E8032F036822F01002FB
:101A000043E80325DDB1026852E8032F036822F0A2
:101A1000100243E8032595B1026852E8032F0368DA
:101A200022F0100243E803254DB1026852E8032F6B
:101A3000036822F0100243E80325002DDAD10222C8
:101A400089B2426302B0BDE8B040FFF72BBD00BFD2
:101A500002B0BDE8B040FFF73DBD00BF026A32F8FA
:101A6000023B6FF35F234B60026283E5002804BFF3
:101A70000120704710B5044690F8410028B90020B5
:101A800084F84000204600F021F8242084F841002A
:101A90002068C16821F40051C160204600F032FD89
:101AA0002068016921F490410161416921F02A0116
:101AB0004161C16841F40051C1600020202160648F
:101AC00084F8411084F84210606310BD2DE9F043A2
:101AD00087B0044641F200402168C4F201000026AC
:101AE00081420696CDE904660396029602D007B0BD
:101AF000BDE8F08343F630010196C4F202014A6961
:101B000046F2284842F020024A614A6900F57440D2
:101B100002F020020192019A01960A68C4F20208BA
:101B200042F004020A60096801F004010191019980
:101B3000C02102910221CDE903160321059108215C
:101B4000069102A9FEF722FF40F24415C2F20005F9
:101B50004FF480704FF020674FF48069C5E906604C
:101B60002846C5E90087C5E90266C5E90496C5E9C6
:101B70000866FEF707FE002818BFFEF7C3FCE56302
:101B8000AC6340F2A41508F17800C2F200054021D0
:101B9000C5E9000705F10800002280E80602284692
:101BA000C5E90522C5E907226A62FEF7EBFD0028B8
:101BB00018BFFEF7A7FC472000210022A563AC63F5
:101BC000FFF73CF84720FFF727F807B0BDE8F083A0
:101BD0007047000070470000B0B590F84140202CDD
:101BE0001CBF0220B0BD1346024600294FF0010081
:101BF00018BF002B00D1B0BD4FF0000C21201162A6
:101C00009384D384C2F844C082F841001468154616
:101C1000906B42F24D3E42F2FD32C0F6000EC0F62D
:101C20000002C0E90FE242F25902C0F60002C0E928
:101C3000132C221DFEF758FE30B1102068642020BE
:101C400085F841000120B0BD286829466FF04002A8
:101C5000026000BF086850E8050F0A6840F0800085
:101C600042E8050303B3086850E8050F0A6840F02E
:101C7000800042E80503BBB1086850E8050F0A6818
:101C800040F0800042E8050373B1086850E8050F92
:101C90000A6840F0800042E80503002B4FF0000086
:101CA00008BFB0BDD6E700BF0020B0BD006841F25C
:101CB0000041C4F20101884218BF704740F2700031
:101CC000C2F20000002181707047000070470000E0
:101CD000FEE70000FEE70000FEE70000704700009E
:101CE00070470000FEF72EBF4EF68850CEF200007F
:101CF000016841F4700101607047000070B540F266
:101D00007005C2F200056878002800F0CE80A8783F
:101D1000012808BF70BD40F2DE00C2F2000088A1B9
:101D20000822FEF72FFB002846D040F2DE00C2F268
:101D3000000085A10922FEF725FB00285AD040F2B9
:101D4000DE00C2F2000083A10A22FEF71BFB00287E
:101D500066D040F2DE00C2F2000081A10B22FEF745
:101D600011FB002870D040F2DE00C2F200007FA11B
:101D70000822FEF707FB002800F0988040F2DE0002
:101D8000C2F200007BA10922FEF7FCFA002800F055
:101D9000B1807BA240F24C20DFF8E4C1D2E90136E9
:101DA000D2E90341928AC2F20000C0E900C3C0E94F
:101DB00002640161828265E040F60040C4F20200E4
:101DC0004FF480410122FEF7B1FE40F24C2044F670
:101DD0002071C2F20000C0F24E01C0F8071044F2B8
:101DE000525144F24C52C2F24401C2F24402C0E9E0
:101DF000002147E040F60040C4F202004FF4804169
:101E00000022FEF793FE40F24C2044F24F6144F270
:101E10005252C2F20000C0F24601C2F244022AE06D
:101E200040F60040C4F202004FF480510122FEF758
:101E30007DFE40F24C20C2F200000021017342F20C
:101E40004E01C4F64F6112E040F60040C4F20200B9
:101E50004FF480510022FEF769FE40F24C20C2F29E
:101E600000004621818142F24E01C4F24F6145F2E9
:101E70004722C4F2455244F24C53C2F24403C0E933
:101E80000032816040F24C240120C2F20004A870AC
:101E90002046FEF7A3FA82B240F20420C2F200000C
:101EA0002146FFF799FE0020687070BD40F600449F
:101EB000C4F2020420464FF480410122FEF736FEB0
:101EC00020464FF480510122FEF730FE39A240F245
:101ED0004C20DFF8E0C0D2E90134D2E9031E526998
:101EE000C2F20000C0E900C3C0E90241C0E904E257
:101EF000C8E700BF40F60044C4F2020420464FF495
:101F000080410022FEF712FE20464FF4805100224D
:101F1000FEF70CFE20A240F24C20D2E90134D2E9B7
:101F2000031EC2F20000DFF870C05669C0E902412A
:101F3000118BC0E900C3C0F810E046610183A1E73E
:101F4000726564206F6E0D00726564206F66660DA9
:101F500000000000677265656E206F6E0D00000066
:101F6000677265656E206F66660D0000616C6C209F
:101F70006F6E0D00616C6C206F66660D00000000D6
:101F80004552524F5220494E56414C494420434FEE
:101F90004D4D414E440000004C45442047524545BC
:101FA0004E204F46460A4C454420524544204F4659
:101FB000460000004C454420475245454E204F4EB8
:101FC0000A4C454420524544204F4E0010B540F283
:101FD000700EC2F2000E9EF8000050B39EF8010091
:101FE000012808BF10BDBEF80410BEF806208A42C2
:101FF0001CD0BEF8083040F2DE0CC2F2000C00BF6C
:102000001EFA82F00132807A94B2632C88BF0022DB
:102010000A280FD0622B9EBF0CF803000133AEF8E4
:10202000083090B28842EBD1AEF8061000208EF84E
:10203000000010BD00200CF80300AEF808000120DD
:10204000AEF806208EF8010010BD0000806B002164
:10205000C185FFF73FBA0000806B01684A6990F8BC
:102060004130212B2DD112F080022AD00021C184D1
:10207000016851E8031F026821F0C00142E8031320
:10208000DBB1016851E8031F026821F0C00142E89A
:10209000031393B1016851E8031F026821F0C001E6
:1020A00042E803134BB1016851E8031F026821F0B5
:1020B000C00142E80313002BDAD1202180F841103F
:1020C0000168496990F84220222A40F07D8011F091
:1020D000400179D00021C185016851E8031F0268E1
:1020E00021F4907142E80313BBB3016851E8031F68
:1020F000026821F4907142E8031373B3016851E858
:10210000031F026821F4907142E803132BB30168A6
:1021100051E8031F026821F4907142E80313002B79
:10212000DAD11AE0016851E8051F026821F00101C7
:1021300042E80513DBB1016851E8051F026821F090
:10214000010142E8051393B1016851E8051F0268D7
:1021500021F0010142E805134BB1016851E8051F68
:10216000026821F0010142E80513002BDAD1016B6E
:10217000012924D1016851E8031F026821F01001F0
:1021800042E80313DBB1016851E8031F026821F044
:10219000100142E8031393B1016851E8031F02687C
:1021A00021F0100142E803134BB1016851E8031F0D
:1021B000026821F0100142E80313002BDAD120213C
:1021C00080F8421000210163416C41F0100141642C
:1021D000FFF780B90168806B0968C90500F19F802D
:1021E0000021C185016851E8031F026821F4807154
:1021F00042E80313E3B1016851E8031F026821F4C8
:10220000807142E803139BB1016851E8031F026823
:1022100021F4807142E8031353B1016851E8031FB0
:10222000026821F4807142E80313002BDAD100BF69
:10223000016851E8051F026821F0010142E8051319
:10224000BBB3016851E8051F026821F0010142E8B3
:10225000051373B3016851E8051F026821F00101FD
:1022600042E805132BB3016851E8051F026821F00D
:10227000010142E80513002BDAD11AE0016851E8A8
:10228000051F026821F0400142E80513DBB1016837
:1022900051E8051F026821F0400142E8051393B19F
:1022A000016851E8051F026821F0400142E805136A
:1022B0004BB1016851E8051F026821F0400142E876
:1022C0000513002BDAD1202180F84210016B01297F
:1022D00025D100BF016851E8031F026821F01001F9
:1022E00042E80313DBB1016851E8031F026821F0E3
:1022F000100142E8031393B1016851E8031F02681B
:1023000021F0100142E803134BB1016851E8031FAB
:10231000026821F0100142E80313002BDAD10021FA
:102320004163016B012918BFFFF752BC818DFFF794
:10233000B9B80000806B01214163016B012918BF0E
:10234000FFF748BC818D4908FFF7ACB80168806B86
:102350000968C90548BFFFF7A9BC0021C18400BFB7
:10236000016851E8051F026821F0800142E8051369
:1023700083B3016851E8051F026821F0800142E83B
:1023800005133BB3016851E8051F026821F0800185
:1023900042E80513F3B1016851E8051F026821F016
:1023A000800142E80513002BDAD113E0016851E8FF
:1023B000031F026841F0400142E80313002B08BFED
:1023C0007047016851E8031F026841F0400142E88C
:1023D000031393B1016851E8031F026841F0400103
:1023E00042E803134BB1016851E8031F026841F052
:1023F000400142E80313002BD8D17047806BFFF7F0
:1024000065BC000081B090F84210222921D1836878
:102410000246B3F5805F09D152F8281F52F8183CE4
:10242000002B63D003685B680AE000BF52F8281FE6
:1024300013B90369002BF5D003685B6803F07F03D1
:102440000B70116801311160C18D01390A04C18519
:1024500002D001B0704700BF0168CA6822F02002B4
:10246000CA60CA6822F48072CA604A6922F0010216
:102470004A61202180F8421000214163026B012A49
:102480003CD10163016851E8031F026821F010018B
:1024900042E80313DBB1016851E8031F026821F031
:1024A000100142E8031393B1016851E8031F026869
:1024B00021F0100142E803134BB1016851E8031FFA
:1024C000026821F0100142E80313002BDAD1016801
:1024D0000A68D20606D5002200920A68009249686E
:1024E00000910099818D01B0FEF7DCBF026852684F
:1024F0006FF35F2221F8022B8162A5E701B0FFF79D
:1025000067BB0000B0B50446006804F108030ECBB9
:102510000569194325F440552A4302616269E3695C
:102520001143C268194349F20C639A431143C160D5
:102530004169A26921F4407141F20043114340F422
:102540008062C4F201039A42416103D1FEF778FC34
:1025500002E000BFFEF760FCE1694FF69C7563681E
:102560001922C0F6FF75B1F5004FA0FB02011FD183
:102570005A00DB0FFDF78EFE48F21F51C5F2EB113A
:10258000A0FB01235A0905F1805302FB030032230B
:1025900003EBC000A0FB01014FF4F87000EA11103A
:1025A00000EB0210C1F34211084421688860B0BDFD
:1025B0009A009B0FFDF76EFE48F21F51C5F2EB111A
:1025C000A0FB01235A0902FB0500322303EB001094
:1025D000A0FB0101F02000EA511000EB0210C1F352
:1025E0004311084421688860B0BD000040F27000CB
:1025F000C2F2000000F10A0140F20420C2F2000021
:102600006422FEF757BE000040F20420C2F2000030
:10261000FEF762BFFEE7000092B043F6300647F2D5
:102620000005C4F20206C4F20005FEF799FA06ACF2
:1026300020463021FDF7F1FE00270597CDE903770D
:10264000CDE901770097306940F080503061306902
:1026500000F08050009000980097286840F4804077
:102660002860286800F480400090009802200690BE
:102670000120099010200A9020460C97FEF72CFCB0
:1026800010B172B6FEE700BF0F20CDE9010701A827
:102690000021CDE903770597FEF70CFB10B172B668
:1026A000FEE700BF00270A97CDE90877CDE9067756
:1026B0000197306805F5CE3440F00800306030688E
:1026C0004FF4A04100F00800019001980197306894
:1026D000002240F00400306030684FF4A04800F061
:1026E0000400019001980197306840F001003060CB
:1026F000306800F00100019001982046FEF716FABC
:102700000120CDE9070706A92046CDF818800997D2
:10271000FEF73CF906973068002140F480003060F5
:102720003068002200F48000069006983920FEF7F9
:1027300085FA3920FEF770FA452000210022FEF7C5
:102740007DFA4520FEF768FA40F2042005F52441A1
:10275000C2F200000C234FF4165280E88600C0E954
:102760000377C0E90537C761FFF780F910B172B68A
:10277000FEE700BFFFF73AFFFFF728FCFFF7BEFABE
:10278000FAE7F1EE100A4FF6FF71C0F2C03120EA0D
:10279000010040F04070E1EE100A704700000000B8
:1027A0000000000001020304060708090000000001
:1027B000010203040006101600061016E0270008A8
:1027C0000000002010000000EC010008F0270008C5
:1027D00010000020A80800000C0200080000000003
:1027E00001000000100000000024F40000000000C0
:040000050800018965
:00000001FF
